:1000000044C1000073C1000071C100006FC1000055
:100010006DC100006BC1000069C1000067C1000034
:1000200065C100000C94B7120C94B7120C94B7126F
:100030005DC100005BC1000059C1000057C1000054
:1000400055C1000053C1000051C100004FC1000064
:100050004DC100004BC1000049C100000C94C81AFA
:1000600045C100000C9404120C94DB113FC1000048
:100070003DC100003BC1000039C1000037C1000094
:1000800035C1000033C1000031C100002FC10000A4
:100090002DC100002BC1000029C1000027C10000B4
:1000A00025C1000023C1000021C100001FC10000C4
:1000B0001DC100001BC1000019C1000017C10000D4
:1000C00015C1000013C1000011C100000FC10000E4
:1000D0000DC100000BC1000009C1000007C10000F4
:1000E00005C1000093099609850989098F09CD0981
:1000F0009A099E09A409A809AC09B209B609BA0966
:10010000CD09C009C409C8094448547878207465E9
:1001100073742100C2B043200025202054656D7007
:10012000657261747572653A200048756D6964691D
:1001300074793A2000C2B043200025202054656D18
:1001400070657261747572653A200048756D6964F6
:100150006974793A200000002100240027002A0059
:100160002D003000330001010000040107010A01E5
:1001700000000A0B02090C0D0E0807030401000021
:10018000000000000000000000000000000000006F
:10019000000000000000000000000000121110002C
:1001A000000000000000000000000000000000004F
:1001B0000000000000007C3C3E5E2B3D3F2F5B5D5D
:1001C0003B2C2A225C00000020002300260029008E
:1001D0002C002F003200000100000301060109017C
:1001E00000002200250028002B002E0031003400E2
:1001F00002010000050108010B01050505050705C1
:1002000008080808020202020A0A08080404040492
:1002100001010101010101010303030303030303BE
:10022000040707070C0C0C0C0C0C0C0C020202024D
:1002300006060606060606060B0B0B0B0B0B0B0B36
:1002400001021020200808102040102040800201E8
:1002500002010804020101020408102040808040CD
:1002600020100804020180040201804020100804CC
:10027000020108040201010204081020408001026A
:100280000408102040802122052211241FBECFEF38
:10029000D1E2DEBFCDBF00E00CBF27E0A4EEB3E0AB
:1002A00001C01D92AB3AB207E1F713E0A0E0B2E063
:1002B000E4EBFDE400E00BBF02C007900D92A43E0A
:1002C000B107D9F711E0C4E4D1E000E006C02197FE
:1002D0000109802FFE010E946C25C334D10780E004
:1002E0000807A9F70E94571B0C94C92689CEDC0188
:1002F0005996ED91FC915A973097B9F0838994897A
:10030000A589B6894285538564857585841B950BBF
:10031000A60BB70B811520E89207A105B10538F0AF
:100320008FEF9FE7A0E0B0E0089580E090E00895AF
:10033000CF93DF931F92CDB7DEB76983DC01ED91D8
:10034000FC910280F381E02D41E050E0BE016F5F3F
:100350007F4F19950F90DF91CF910895089580E018
:1003600090E00895CF93DF93EC018D81882379F19C
:100370008C8187FF28C06E857F858889998941E0B7
:100380000E947013882319F1EA8980E2E89FF00146
:100390001124E35BFB4F3097D1F08D81823040F424
:1003A0008B899C89AD89BE89848F958FA68FB78FE5
:1003B0008F89988DA98DBA8D938F828FB58BA48BE1
:1003C0008C818F778C83DF91CF910C94351380E0F3
:1003D000DF91CF910895FC01818D928D009709F0F6
:1003E000C1CF08958F929F92AF92BF92CF92DF922A
:1003F000EF92FF920F931F93CF93DF93EC018D81C8
:10040000811102C080E078C00B891C892D893E894A
:100410000417150726073707A8F36A017B01823006
:1004200029F4CA86DB86EC86FD860DC0C114D10492
:10043000E104F10451F41E821F82188619861A867F
:100440001B861C861D8681E057C08A849B84AC84F1
:10045000BD84EB8DFC8D258530E0275F3F4FB501D6
:10046000A4014150510961097109022E04C0769519
:100470006795579547950A94D2F7D701C60101971A
:10048000A109B10904C0B695A795979587952A95B6
:10049000D2F784179507A607B70720F089288A287E
:1004A0008B2871F44F89588D698D7A8D4E835F83C7
:1004B000688779874C015D018E010A5F1F4F16C066
:1004C000841B950BA60BB70BF5CF4E815F8168851A
:1004D000798598018B8D9C8D0E94581491E0891A22
:1004E0009108A108B108882309F48CCF81149104E4
:1004F000A104B10451F795CFDF91CF911F910F91D6
:10050000FF90EF90DF90CF90BF90AF909F908F9033
:1005100008958F929F92AF92BF92CF92DF92EF9207
:10052000FF920F931F93CF93DF9300D01F92CDB70D
:10053000DEB77C0180E2689FF0011124E35BFB4F92
:100540009385917121F0842F827409F08EC0142F4D
:10055000D70152966C93529740911D0250911E0202
:1005600060911F02709120021E964D935D936D93D2
:100570007C9351974489558960E070E0BA01552712
:100580004427828D938DA0E0B0E0482B592B6A2B35
:100590007B2BD70157964D935D936D937C935A9720
:1005A0008385887159F4848D958DA68DB78DF7015B
:1005B000838B948BA58BB68B81E012C0803109F0C0
:1005C00054C097012D5E3F4FD7015B968D919C9152
:1005D0005C970E946017882309F447C084E0F70104
:1005E0008583812F8F70D70114968C931497F70110
:1005F00016821782108611861A961D921D921D92E0
:100600001C921D9716FF33C015968C91813069F5A9
:1006100011FF2BC0F7014389548965897689452BE1
:10062000462B472B09F45EC040E050E0BA01C701F9
:10063000D9DE8823D1F0F7018788908CA18CB28C09
:10064000C38CD48C82E090E0A0E0B0E0F60180831F
:100650009183A283B3839E012F5F3F4FB501A40115
:10066000C6010E945814811104C080E03BC081E0A3
:1006700039C000E010E09801B501A401C6010E9454
:10068000B813882391F389809A80AB80BC80D6010F
:1006900057968C91803129F088EF9FEFAFEFBFE044
:1006A00004C088EF9FEFA0E0B0E088169906AA0684
:1006B000BB0688F2D70157961D921D921D921C927F
:1006C0005A97F701138A148A158A168A84818068DA
:1006D0008483C70147DE882341F240E050E0BA013D
:1006E000C70180DE0F900F900F900F90DF91CF9198
:1006F0001F910F91FF90EF90DF90CF90BF90AF9040
:100700009F908F900895CF93DF93EC012BDE882389
:1007100011F01D8281E0DF91CF9108953F924F92B9
:100720005F926F927F928F929F92AF92BF92CF9281
:10073000DF92EF92FF920F931F93CF93DF93CDB78A
:10074000DEB72C970FB6F894DEBF0FBECDBF5C01AD
:10075000DC015B968D909C905C971696CD90DD9019
:10076000ED90FC901997C114D104E104F10439F023
:10077000BFEFCB1ADB0AEB0AFB0A312C07C0F401EE
:10078000C080D180E280F38033243394F4018185EA
:100790009285A385B4859C01AD012F5F3F4F4F4FDC
:1007A0005F4F29873A874B875C87260137011D8277
:1007B0001E821F821886F40181859285A385B485E7
:1007C0002D813E814F815885281739074A075B07DD
:1007D00008F063C089859A85AB85BC858C159D051D
:1007E000AE05BF0550F482E0C82ED12CE12CF12CCF
:1007F00092E0492E512C612C712C9E012F5F3F4FAE
:10080000B701A601C4010E945814882309F445C009
:1008100089819A81AB81BC81892B8A2B8B2B41F0FA
:10082000260137019FEF491A590A690A790A05C05A
:10083000C414D504E604F70491F02D813E814F8164
:1008400058852F5F3F4F4F4F5F4F2D833E834F8320
:1008500058873FEFC31AD30AE30AF30AACCF0FEF6E
:100860001FEF2FEF3FE0B301A201C4010E94B813B4
:10087000882399F0D50116964D915D916D917C91EB
:100880001997411551056105710549F093018201E0
:10089000C4010E94B813811102C080E02AC0D501B2
:1008A00016964D925D926D927C921997332051F07D
:1008B000D301C2010196A11DB11DF4018083918372
:1008C000A283B383F5018789908DA18DB28D892B89
:1008D0008A2B8B2B69F4D50157964D925D926D92C0
:1008E0007C925A9714968C911497806814968C93E6
:1008F00081E02C960FB6F894DEBF0FBECDBFDF911E
:10090000CF911F910F91FF90EF90DF90CF90BF900C
:10091000AF909F908F907F906F905F904F903F909F
:1009200008958FB7F8948091FF038FBF089561E019
:10093000FC01848172D68091FE0381111092FE0326
:1009400008958EBD00000DB407FEFDCF8EB508954D
:100950008FEFF7CF0F931F93CF93DF93EB010E949D
:100960002A0E8B01F5DF8F3F49F00E942A0E601B93
:10097000710B6C177D07B0F380E001C081E0DF915F
:10098000CF911F910F910895CF93DF93EC018E814A
:10099000882379F08F8198859C012F5F3F4F38879E
:1009A0002F838230924010F4D3DFF4CFCE01BFDF2B
:1009B0001E82DF91CF9108958CBD9DBD0895CF9388
:1009C000DF93EC018091FE03811108C081E08093E8
:1009D000FE038091EC069091ED06EEDF60E08C81E5
:1009E000DF91CF911AC68F929F92AF92BF92FF92E2
:1009F0000F931F93CF93DF93EC01F62E49015A0119
:100A0000C3DFCE01DCDF6CE271E0CE01A3DF8F2D0E
:100A1000806497DF08E110E0D501C401002E04C016
:100A2000B695A795979587950A94D2F78ADF0850CF
:100A30001109083F8FEF180779F7FF2029F088E0A8
:100A4000F81204C087E803C085E901C08FEF79DFA1
:100A500010E07EDF8A8787FF04C01F3F11F01F5F11
:100A6000F8CFDF91CF911F910F91FF90BF90AF9082
:100A70009F908F900895AF92BF92CF92DF92EF92A6
:100A8000FF920F931F93CF93DF93EC016901C8018D
:100A9000820F931F8130924008F06AC08E818823B4
:100AA00071F088819981AA81BB8184179507A60777
:100AB000B70729F48F819885C816D90698F5488319
:100AC00059836A837B838B85833039F089E0440FB7
:100AD000551F661F771F8A95D1F79A01AB0161E117
:100AE000CE0181DF882319F083E08D8341C00E940D
:100AF0002A0E5B012DDF8A878F3F49F40E942A0E60
:100B00006A197B096D327140A8F38FE003C08E3FF4
:100B100029F08DE08D83CE010ADF2AC018861F825E
:100B200081E08E838F8198858C159D0538F410DFC8
:100B30008F819885019698878F83F4CF6701E00EA7
:100B4000F11EEC14FD0429F003DFF60181936F011F
:100B5000F8CF8F819885080F191F18870F83898513
:100B6000882319F00115124038F0CE010DDF04C0C2
:100B7000CE01DDDE80E001C081E0DF91CF911F91E9
:100B80000F91FF90EF90DF90CF90BF90AF900895BE
:100B9000EF92FF920F931F93CF93DF93EC017901B4
:100BA000411551056105710511F482E134C08B8551
:100BB000833039F089E0440F551F661F771F8A95EF
:100BC000D1F79A01AB0168E1CE010DDF882311F066
:100BD00084E021C08EEFB5DE87018EEFF81AF801B0
:100BE00081918F01AEDEE016F106C9F78FEFA9DE25
:100BF0008FEFA7DEADDE8A878F71853029F081E126
:100C00008D83CE0194DE08C068E572E0CE01A2DEDD
:100C1000811106C085E18D83CE0189DE80E011C09F
:100C200020E030E0A9016DE0CE01DDDE811107C0DA
:100C30008FDE811104C0CE017ADE81E002C084E142
:100C4000EACFDF91CF911F910F91FF90EF90089520
:100C50002F923F924F925F926F927F928F929F92CC
:100C6000AF92BF92CF92DF92EF92FF920F931F93BA
:100C7000CF93DF9300D01F92CDB7DEB78C015B011D
:100C80001A01DC0115968C9115978130C1F41496E8
:100C90008C9181FF14C082FF1CC0F80143895489E4
:100CA0006589768982859385A485B585841795079E
:100CB000A607B70771F0C80195DB81110AC081E072
:100CC00090E0D80113969C938E93129780E090E069
:100CD00033C1610182C05B968D919C915C97FC0150
:100CE00074802FEF270D2A013B0139E07694679439
:100CF000579447943A95D1F7722E74207A01F1E017
:100D0000FF22772009F475C080E092E08E199F09D8
:100D100046018C159D0508F44C01D8015B962D9178
:100D20003C915C9716968D919D910D90BC91A02D54
:100D30000297A109B109F901058404C0880F991F20
:100D4000AA1FBB1F0A94D2F746855785608971890F
:100D5000840F951FA61FB71F9C01AD01270D311DE4
:100D6000411D511D29013A01811432E0930609F019
:100D700086C080911D0290911E02A0911F02B09129
:100D80002002481659066A067B0659F48FEF9FEF3A
:100D9000DC0180931D0290931E02A0931F02B0936A
:100DA00020029501B301A20180914D0690914E065B
:100DB000EFDE882309F483CF9EEFB91AC818D9084B
:100DC000F80182859385A485B585880D991DA11D9F
:100DD000B11D82879387A487B587D8011A964D9154
:100DE0005D916D917C911D97C114D10409F073CF71
:100DF00086C0E114F10409F087CF16964D915D91FC
:100E00006D917C911997411551056105710559F452
:100E100057968D919D910D90BC91A02D0097A105A5
:100E2000B10539F521C09E012F5F3F4F0E94581434
:100E3000882309F44CCF89819A81AB81BC81F80168
:100E4000238D348DF9012789203129F048EF5FEF98
:100E50006FEF7FE004C048EF5FEF60E070E0841761
:100E60009507A607B70728F0C80158DC81114CCFB9
:100E700026CFF80186839783A087B18745CFE114F9
:100E8000F10429F5D8011A964D915D916D917C91EF
:100E90001D9753968D919D910D90BC91A02D481753
:100EA00059076A077B0798F00E943513882309F4D5
:100EB00006CF40921D0250921E0260921F02709255
:100EC00020028091080481608093080408C041E0FA
:100ED000C301B2010E947013882309F4F0CED5013A
:100EE000F701E35BFB4F9F01280D391D2E173F07CC
:100EF00019F08D918193FACFA80CB91C5FCFF8013E
:100F000083899489A589B68984179507A607B707A9
:100F100038F4438B548B658B768B84818068848313
:100F2000F801848183FD02C0C10106C0C8011ADA3C
:100F3000882309F4C4CEF8CF0F900F900F900F9034
:100F4000DF91CF911F910F91FF90EF90DF90CF90A5
:100F5000BF90AF909F908F907F906F905F904F90D9
:100F60003F902F900895CF93DF93EC01898D9A8D58
:100F7000009739F481E090E09B838A8380E090E0E1
:100F80000AC0FC011382128263DEE98DFA8D228190
:100F90003381232B79F7DF91CF910895FC01DB0199
:100FA00012968D919C911397938382838BE492E0A8
:100FB0009183808314968C911497848315968C91D9
:100FC0001597858316964D915D916D917C9119973A
:100FD00046835783608771871A964D915D916D9115
:100FE0007C911D9742875387648775871E964D9124
:100FF0005D916D917C91519746875787608B718B7E
:1010000052968C915297828B53964D915D916D9132
:101010007C915697438B548B658B768B57964D916D
:101020005D916D917C915A97478B508F618F728F34
:101030005B968D919C915C97948F838F08954F92CE
:101040005F926F927F92AF92BF92CF92DF92EF92B8
:10105000FF920F931F93CF93DF931F92CDB7DEB70D
:10106000FC012581222309F4C0C0848180FFBDC01A
:1010700083899489A589B68942845384648475845C
:1010800084159505A605B70509F4AFC06F01520197
:10109000F1E0BF22D6015B968D919C915C97B301E4
:1010A000A20139E076956795579547953A95D1F71E
:1010B000223071F4FC01828D938DA48DB58D8A014F
:1010C0009B01080F191F2A1F3B1FC901B8014AC005
:1010D000DC0114961C9111501423A114B104F9F4ED
:1010E00011111DC045284628472851F4F60187896B
:1010F000908DA18DB28D86839783A087B1870FC015
:10110000D60116964D915D916D917C91199796013E
:101110002A5F3F4F0E945814882309F466C0F601E5
:10112000238D348D86819781A085B1850297A10991
:10113000B109AC01BD01F901058404C0440F551F7C
:10114000661F771F0A94D2F786859785A089B18993
:10115000840F951FA61FB71FBC01CD01610F711D24
:10116000811D911DD60114962C9126FF0DC0409033
:101170001D0250901E0260901F02709020024616C1
:1011800057066806790699F440E00E947013882398
:1011900061F1F501E35BFB4FDE0111969F012F5FCB
:1011A0003F4F2E173F0791F081918D93FACFFE01AB
:1011B00031967F0101E010E09501AB01BC01809107
:1011C0004D0690914E0657DC882379F0F601828512
:1011D0009385A485B5850196A11DB11D828793874E
:1011E000A487B587898190E002C08FEF9FEF0F90B1
:1011F000DF91CF911F910F91FF90EF90DF90CF90F3
:10120000BF90AF907F906F905F904F900895FC01DA
:10121000818D928D009709F012CF8FEF9FEF089587
:101220000F931F93CF93DF93FC01818D928D0097D5
:10123000A9F0EF0104DF8C010F3F8FEF180789F051
:10124000898D9A8DFC014285538564857585415051
:10125000510961097109C6D8C80105C080E090E054
:1012600002C08FEF9FEFDF91CF911F910F910895F3
:10127000CF92DF92EF92FF92CF93DF93B091590715
:10128000882311F0AB2F01C0A0E080915A0790E0B5
:10129000880F991F8A539E4FC0905F07D0906007B8
:1012A000E0906107F090620720E030E0FC01C5911A
:1012B000D491E881EB23A90160E070E0EA130CC04F
:1012C0002F5F3F4F4C155D056E057F0578F33FEFAF
:1012D0002FEF8FEF9FEF03C0322F252FCB01632F0E
:1012E000722FDF91CF91FF90EF90DF90CF90089514
:1012F00090E0FC013197E231F10508F04EC08827FB
:10130000EE58FF4F8F4F0C946C25809180008F77A3
:1013100003C0809180008F7D80938000089580912C
:101320008000877FF9CF84B58F7702C084B58F7D29
:1013300084BD08958091B0008F7703C08091B00084
:101340008F7D8093B0000895809190008F7707C0C3
:10135000809190008F7D03C080919000877F809363
:10136000900008958091A0008F7707C08091A00021
:101370008F7D03C08091A000877F8093A000089597
:10138000809120018F7707C0809120018F7D03C05D
:1013900080912001877F8093200108953FB7F894C2
:1013A0008091040490910504A0910604B091070473
:1013B00026B5A89B05C02F3F19F00196A11DB11DB0
:1013C0003FBFBA2FA92F982F8827820F911DA11DEB
:1013D000B11DBC01CD0142E0660F771F881F991F28
:1013E0004A95D1F70895EF92FF920F931F93CF93F1
:1013F000DF93EC017B018A011B821A8288EE93E065
:10140000A0E0B0E08C839D83AE83BF8387E592E04C
:10141000998388838DE190E00E9488259A8F898F37
:10142000009779F02DE1F701DC0101900D922A95EA
:10143000E1F74CE050E0B801CE010C960E94BA26CC
:10144000188EDF91CF911F910F91FF90EF9008952B
:10145000CF92DF92EF92FF920F931F93CF93DF9380
:101460006B01770FEE08FF08F7FE19C0EC016DE283
:10147000F5D68C0144275527BA014C195D096E0930
:101480007F092AE0CE012AD7800F911FDF91CF91EB
:101490001F910F91FF90EF90DF90CF9008952AE079
:1014A000B701A601DF91CF911F910F91FF90EF90AF
:1014B000DF90CF9013C7CF92DF92EF92FF92CF933E
:1014C000DF93C82F809158078C3009F446C018F478
:1014D0008B30D1F06FC08551823008F06BC0D09155
:1014E00054076D2F6F7770E0762F66278091550730
:1014F000682B80E090E00E945F232DEC3CEC4CECEC
:101500005DE30E94C02345C06091540770E080E015
:1015100090E00E945F236B017C01D0915507D7FFBB
:101520000AC09B01AC0160E070E080E89FEB0E9484
:101530008D246B017C016D2F6F7070E080E090E076
:101540000E9461232DEC3CEC4CEC5DE30E94C02337
:10155000A70196010E948E241EC0D09154076D2FC2
:1015600070E080E090E00E945F236B017C0160915D
:1015700055076F7070E080E090E00E9461232DECD1
:101580003CEC4CEC5DE30E94C023A70196010E9455
:101590008E24D7FD9058CC2389F026E636E646EE19
:1015A0005FE30E94C02320E030E040E052E40E946C
:1015B0008E2404C060E070E080EC9FE7DF91CF9163
:1015C000FF90EF90DF90CF900895CF93DF93282F77
:1015D00030E0F901E059FE4F8491F901E05CFD4FE4
:1015E000D491F901E650FE4FC491CC2389F08111CA
:1015F0007FDEEC2FF0E0EE0FFF1FEA53FE4FA591C8
:10160000B491EC91ED2381E090E021F480E002C000
:1016100080E090E0DF91CF9108951F93CF93DF9307
:10162000282F30E0F901E059FE4F8491F901E05C88
:10163000FD4FD491F901E650FE4FC491CC23B9F08F
:10164000162F811155DEEC2FF0E0EE0FFF1FE05258
:10165000FE4FA591B4919FB7F894111104C08C91DD
:10166000D095D82302C0EC91DE2BDC939FBFDF9195
:10167000CF911F910895CF93DF9390E0FC01E05C40
:10168000FD4F2491FC01E650FE4F8491882361F1C7
:1016900090E0880F991FFC01EA5AFE4FC591D49142
:1016A000FC01E052FE4FA591B491611109C09FB7B2
:1016B000F8948881209582238883EC912E230BC097
:1016C000623061F49FB7F8948881322F309583237C
:1016D0008883EC912E2B2C939FBF06C08FB7F89474
:1016E000E8812E2B28838FBFDF91CF9108951F9320
:1016F000CF93DF93182FC5E6D7E061E08981BBDF88
:1017000061E089818ADF61E0888187DF60E089812B
:1017100084DF60E0888181DF412F68818981DF91EA
:10172000CF911F910C94A01AEF92FF920F931F93E9
:10173000CF93DF93CDB7DEB728970FB6F894DEBF0F
:101740000FBECDBF80916E07882309F447C084EE99
:101750008093BC008091BC0087FFFCCF80ED80931C
:10176000BB0084EC8093BC008091BC0087FFFCCF61
:101770001092BB0084EC8093BC008091BC0087FF7A
:10178000FCCF84EE8093BC008091BC0087FFFCCF2F
:1017900081ED8093BB0084EC8093BC008091BC0001
:1017A00087FFFCCFE7E6F7E08EE697E034EC309376
:1017B000BC002091BC0027FFFCCF2091BB002193EF
:1017C0008E179F07A1F784E88093BC008091BC002E
:1017D00087FFFCCF84E98093BC0045C080ED87DFA4
:1017E0000E948B1A61E08091660745DF40E06091BE
:1017F0006507809166070E94A01A0E948B1A81EDEE
:1018000076DF0E948B1A87E6E82E87E0F82E00E04C
:1018100010E00E94641AF70181937F0106301105E0
:10182000C9F061E08091660726DF60E0809165077E
:10183000F4DE60E080916607F0DE61E0809165078C
:10184000ECDE60E080916507E8DE60E0809166078D
:1018500012DF02C00E94461A0F5F1F4F07301105AA
:10186000C1F60E942C1A80916707482F469546952D
:1018700046954E70942F990F990F490F8F70480F0E
:1018800080916807382F3695369536953E70932FA0
:10189000990F990F390F8F70380F80916907282F92
:1018A0002F7087FF08C085FB992790F9FCE09F9F68
:1018B000200D112409C08073869586958695982FF2
:1018C000990F990F890F280FE0916A0760916B07B4
:1018D00070916C0780916D07562F569556955695C9
:1018E0005E70952F990F990F590F6F70560F672FD4
:1018F0006695669566956E70962F990F990F690F8C
:101900007F70670F982F92959F708F707AE0979FE6
:10191000800D112490E08053984F9F838E83782F01
:101920008F819E2F28960FB6F894DEBF0FBECDBFD5
:10193000DF91CF911F910F91FF90EF900895CF937A
:10194000DF93CDB7DEB728970FB6F894DEBF0FBE92
:10195000CDBFEADE3A834B832A3010F480E305C022
:10196000822F6AE00E942B25805D809314023AE06A
:10197000822F632F0E942B25905D909315028AE39E
:10198000809316022A812A3010F480E305C0822F4A
:10199000632F0E942B25805D809317023AE0822FEF
:1019A000632F0E942B25905D909318028AE3809309
:1019B00019022B812A3010F480E305C0822F632F97
:1019C0000E942B25805D80931A02822F6AE00E947C
:1019D0002B25905D90931B0210921C0284E192E0F3
:1019E00028960FB6F894DEBF0FBECDBFDF91CF9122
:1019F0000895CF93DF93CDB7DEB728970FB6F8944D
:101A0000DEBF0FBECDBF90DE6D837E838F835A30E5
:101A100010F480E305C0852F6AE00E942B25805DCD
:101A2000809309023AE0852F632F0E942B25905D59
:101A300090930A028EE280930B022D812A3010F4DB
:101A400080E305C0822F632F0E942B25805D809349
:101A50000C02822F6AE00E942B25905D90930D026C
:101A60008EE280930E022E813F81C90168EE73E001
:101A70000E943725605D60930F02E4E6F0E0BF014D
:101A80000E943725605D60931002C901BF010E946A
:101A90003725EAE0F0E0BF010E943725605D6093E2
:101AA0001102C901BF010E943725805D8093120297
:101AB0001092130289E092E028960FB6F894DEBFE8
:101AC0000FBECDBFDF91CF910895CF93DF93CDB7F8
:101AD000DEB766970FB6F894DEBF0FBECDBF8EE0BF
:101AE000E7E2F2E0DE01119601900D928A95E1F7AE
:101AF0001BDE9E012F5F3F4F290F311D290F311D26
:101B0000F90132978081918166960FB6F894DEBF15
:101B10000FBECDBFDF91CF910895CF9390916E0707
:101B2000992309F43FC094EE9093BC009091BC00BF
:101B300097FFFCCF90ED9093BB0094EC9093BC008A
:101B40009091BC0097FFFCCF8093BB0084EC809306
:101B5000BC008091BC0087FFFCCF84EE8093BC006A
:101B60008091BC0087FFFCCF81ED8093BB0084ECAB
:101B70008093BC008091BC0087FFFCCF84EC8093F5
:101B8000BC008091BC0087FFFCCFC091BB0084E803
:101B90008093BC008091BC0087FFFCCF84E98093D8
:101BA000BC001DC0C82F80EDA2DD0E948B1A61E031
:101BB0008091660760DD4C2F609165078091660714
:101BC0000E94A01A0E948B1A81ED91DD0E948B1A4F
:101BD0000E94641AC82F0E94461A0E942C1A8C2F49
:101BE000CF9108958F929F92AF92BF92CF92DF9242
:101BF000EF92FF926B017C01D1DB4B015C01C114C0
:101C0000D104E104F104E9F0C9DBDC01CB0188195E
:101C10009909AA09BB09883E9340A105B10578F34B
:101C200021E0C21AD108E108F10888EE880E83E0AD
:101C3000981EA11CB11CC114D104E104F10421F7C8
:101C4000DECFFF90EF90DF90CF90BF90AF909F904E
:101C50008F9008952FB7F89460910004709101045B
:101C600080910204909103042FBF0895CF92DF92D8
:101C7000EF92FF920F931F93CF93DF93CDB7DEB711
:101C8000C054D1400FB6F894DEBF0FBECDBFE2DF27
:101C900000915B0710915C0720915D0730915E0712
:101CA0006B017C01C01AD10AE20AF30A40EDC416A6
:101CB00047E0D406E104F10418F480916307C0C042
:101CC00060935B0770935C0780935D0790935E075A
:101CD000109256071092550710925407109253070E
:101CE0001092520762E080915707C5DC61E070E016
:101CF00080E090E077DF61E080915707BCDC60E036
:101D0000809157078ADC809158078551823028F4EA
:101D10008BE291E10197F1F705C064E170E080E0AA
:101D200090E060DF62E080915707A5DC8091640756
:101D300090E08230910538F0880F991F880F991F25
:101D400005970197F1F7F89480E092DA6F3F7F4FA3
:101D50008F4F9F4F21F41092630778943EC081E02B
:101D600087DA6F3F7F4F8F4F9F4FA9F38E010F5F31
:101D70001F4F6E012FEBC21A2EEFD20A780180E0BE
:101D800077DAF701608371838283938381E070DA6D
:101D9000F7016483758386839783F8E0EF0EF11C67
:101DA000EC14FD0461F7789420E030E0F801C08085
:101DB000D180E280F3804481558166817781FFEF95
:101DC000CF16DF06EF06FF0631F04F3F8FEF5807C3
:101DD0006807780721F41092630780E031C0F901A9
:101DE00083E0F595E7958A95E1F7EE5AF84F808103
:101DF000880FC416D506E606F70608F481608083CE
:101E00002F5F3F4F085F1F4F2832310579F6209131
:101E1000560730E0409152078091530790E0840FBD
:101E2000911D40915407840F911D40915507840FD7
:101E3000911D99272817390771F681E08093630770
:101E4000C05CDE4F0FB6F894DEBF0FBECDBFDF9192
:101E5000CF911F910F91FF90EF90DF90CF90089559
:101E6000CF92DF92EF92FF920F931F93CF93DF9366
:101E70006C017A018B01C0E0D0E0CE15DF0581F066
:101E8000D8016D918D01D601ED91FC910190F08109
:101E9000E02DC6011995892B11F02196EECF7E0118
:101EA000C701DF91CF911F910F91FF90EF90DF90CD
:101EB000CF900895FC01538D448D252F30E0842F61
:101EC00090E0821B930B541710F0CF960895019762
:101ED0000895FC01918D828D981761F0828DDF014C
:101EE000A80FB11D5D968C91928D9F5F9F73928F0D
:101EF00090E008958FEF9FEF0895FC01918D828D02
:101F0000981731F0828DE80FF11D858D90E00895CE
:101F10008FEF9FEF0895FC01918D228D892F90E026
:101F2000805C9F4F821B91098F73992708958FE4DE
:101F300096E0F1DF21E0892B09F420E0822F08955B
:101F4000FC01848DDF01A80FB11DA35ABF4F2C9156
:101F5000848D90E001968F739927848FA689B78925
:101F60002C93A089B1898C91837080648C93938D1C
:101F7000848D981306C00288F389E02D80818F7DBF
:101F800080830895EF92FF920F931F93CF93DF9377
:101F9000EC0181E0888F9B8D8C8D981305C0E889BA
:101FA000F989808185FD25C0F62E0B8D10E00F5F2D
:101FB0001F4F0F731127E02E8C8DE8120BC00FB648
:101FC00007FCFACFE889F989808185FFF5CFCE013A
:101FD000B7DFF2CF8B8DFE01E80FF11DE35AFF4F03
:101FE000F0829FB7F8940B8FEA89FB898081806229
:101FF0000AC09FB7F894EE89FF896083E889F98960
:1020000080818370806480839FBF81E090E0DF9156
:10201000CF911F910F91FF90EF900895CF93DF9391
:10202000EC01888D8823C1F0EA89FB89808185FDD8
:1020300005C0A889B9898C9186FD0EC00FB607FC32
:10204000F5CF808185FFF2CFA889B9898C9185FF72
:10205000EDCFCE0175DFE8CFDF91CF91089580E01D
:1020600090E0892B19F063DF811125C080E090E0BA
:10207000892B41F080E090E0892B21F00E94000044
:1020800081111CC080E090E0892B41F080E090E05D
:10209000892B21F00E940000811113C080E090E0A4
:1020A000892BA1F080E090E0892B81F00E94000054
:1020B00081110AC008950E940000D8CF0E9400003C
:1020C000E1CF0E940000EACF0C9400000895209117
:1020D000E6033091E7032817390771F49091E40380
:1020E0008091E503981741F0E091E403F0E0E35FAD
:1020F000FB4F808190E008958FEF9FEF0895089542
:102100001F93CF93DF93DC015C968D919C915D973B
:10211000009739F421E030E013963C932E93129708
:102120003BC05196ED91FC91529750962C9150974F
:10213000322F30951FB75E964C915E97742F727058
:1021400041FD6095F8944081772311F0422B01C046
:1021500043234083EC012197F1F748E0508160FF71
:1021600002C0522B01C053235083EC012197F1F799
:102170006695415099F78081772319F083238083F6
:1021800002C0282B20831FBF5C968D919C915D9788
:102190000197F1F781E090E0DF91CF911F910895D1
:1021A0002091E6033091E7032817390769F48091FD
:1021B000E5032091E40390E0805C9F4F821B91092E
:1021C00060E470E00C94372580E090E00895209161
:1021D000E6033091E70328173907B9F49091E40337
:1021E0008091E503981789F0E091E403F0E0E35F64
:1021F000FB4F80812091E40330E02F5F3F4F2F732E
:1022000033272093E40390E008958FEF9FEF089524
:102210000E94A926CF93DF93EC0160E08E81FDD967
:1022200061E08E81FAD960E08E81F7D98BE891E088
:102230000197F1F7DF91CF910895CF93DF931F922C
:10224000CDB7DEB7698341E050E0BE016F5F7F4FDD
:102250000E9428060F90DF91CF910895DC01ED9147
:10226000FC910190F081E02D1994EF92FF920F9371
:102270001F93CF93DF938C017B01C0E0D0E0F70187
:10228000EC0FFD1F6491662361F0D801ED91FC9184
:102290000190F081E02DC8011995892B11F021964C
:1022A000EECFCE01DF91CF911F910F91FF90EF9074
:1022B00008956115710579F0FB0101900020E9F79F
:1022C0003197AF01461B570BDC01ED91FC91028069
:1022D000F381E02D199480E090E008958F929F9211
:1022E000AF92BF92EF92FF920F931F93CF93DF9322
:1022F000CDB7DEB7A1970FB6F894DEBF0FBECDBF46
:102300007C01FA01CB0119A2223008F42AE08E01E7
:102310000F5D1F4F822E912CA12CB12CBF01A50166
:1023200094010E944A25F901CA01015011096A303D
:1023300014F4605D01C0695CD8016C93232B242BDD
:10234000252B61F7B801C701B4DFA1960FB6F89449
:10235000DEBF0FBECDBFDF91CF911F910F91FF90D8
:10236000EF90BF90AF909F908F9008950F931F9321
:10237000CF93DF93EC019DDF8C0168E273E0CE0127
:1023800098DF800F911FDF91CF911F910F910895DA
:102390000F931F93CF93DF93EC0167DF8C0168E20B
:1023A00073E0CE0186DF800F911FDF91CF911F91E7
:1023B0000F9108957ECF1F920F920FB60F921124A6
:1023C0000BB60F922F933F934F935F936F937F932F
:1023D0008F939F93AF93BF93EF93FF938FE496E018
:1023E000AFDDFF91EF91BF91AF919F918F917F9161
:1023F0006F915F914F913F912F910F900BBE0F9076
:102400000FBE0F901F9018951F920F920FB60F924C
:1024100011240BB60F922F938F939F93EF93FF93FB
:10242000E0915F06F09160068081E0916506F09191
:10243000660682FD12C09081809168068F5F8F735F
:1024400020916906821751F0E0916806F0E0E15BA7
:10245000F94F958F8093680601C08081FF91EF91BD
:102460009F918F912F910F900BBE0F900FBE0F90E9
:102470001F901895CF92DF92EF92FF920F931F93C8
:10248000CF93DF936C017C0187E0E80EF11CC0E084
:10249000D0E0062F10E0B8010C2E02C075956795AC
:1024A0000A94E2F76170F70181917F01B6D8219615
:1024B000C430D10581F7C601DF91CF911F910F91F3
:1024C000FF90EF90DF90CF90A5CECF92DF92EF926A
:1024D000FF920F931F93CF93DF93EC01F62E642F9F
:1024E0008C819BD88D818F3F11F060E096D88F85CD
:1024F0000F2D10E084FF23C06E0187E0C80ED11CB1
:10250000E12CF12CB8010E2C02C0759567950A9448
:10251000E2F76170F60181916F017FD8FFEFEF1A4A
:10252000FF0A88E0E816F10469F7CE01DF91CF9148
:102530001F910F91FF90EF90DF90CF906BCEB8017D
:1025400084E0759567958A95E1F7CE0193DF6F2D4D
:10255000CE01DF91CF911F910F91FF90EF90DF900F
:10256000CF9088CF41E0B1DF81E090E008951F92E5
:102570000F920FB60F9211240BB60F922F933F9329
:102580004F935F936F937F938F939F93AF93BF937B
:10259000EF93FF93E091E603F091E703309709F49E
:1025A00051C0968DA685B785858591FF04C09C9105
:1025B000892329F447C09C91892309F043C0A3894A
:1025C000B4899C918589809589238C938689978984
:1025D0000197F1F7608D718DA685B785558538E037
:1025E00020E0CB010197F1F7822F90E09595879538
:1025F000282F4C91452309F02068315091F7868DA2
:1026000081FD20958091E50390E001968F739927D5
:102610003091E403381749F0A091E503B0E0A35FDF
:10262000BB4F2C938093E50303C0868D8160868F1A
:10263000828D938D0197F1F7A389B4899C91858947
:10264000892B8C93FF91EF91BF91AF919F918F91C7
:102650007F916F915F914F913F912F910F900BBEA2
:102660000F900FBE0F901F9018958091080488233B
:10267000A9F140911D0250911E0260911F027091BC
:1026800020022DE434E080914D0690914E060E9488
:10269000C805811102C080E008954091090450915D
:1026A0000A0460910B0470910C04411551056105F9
:1026B000710591F02DE434E080914D0690914E0625
:1026C0000E94C805882339F31092090410920A0465
:1026D00010920B0410920C041092080481E00895EB
:1026E0008F929F92AF92BF92EF92FF920F931F93A0
:1026F000CF934B015C01C42F80911D0290911E026B
:10270000A0911F02B091200288159905AA05BB056A
:10271000F9F0ABDF811102C080E020C08DE4E82E2B
:1027200084E0F82E00E012E020E030E0B501A401E2
:1027300080914D0690914E060E943B05882361F3DF
:1027400080921D0290921E02A0921F02B09220025F
:1027500080910804C82BC093080481E0CF911F9199
:102760000F91FF90EF90BF90AF909F908F90089542
:102770004F925F926F927F928F929F92AF92BF9291
:10278000CF92DF92EF92FF920F931F93CF93DF933D
:10279000EC01423051056105710510F480E077C00D
:1027A00089859A85AB85BC850196A11DB11D8417CD
:1027B0009507A607B70790F3CB88DC88ED88FE88DD
:1027C0008F89803129F4BB27A72F962F852F09C029
:1027D000DB01CA01E7E0B695A79597958795EA953D
:1027E000D1F7480159012A013B01C80ED91EEA1E42
:1027F000FB1E80911D0290911E02A0911F02B091BC
:102800002002C816D906EA06FB0681F48F898031BA
:10281000A1F4B301A201552766277727440F551F5E
:10282000FA01E35BFB4F9182808218C040E0C70150
:10283000B60156DF8111EACFB1CFB301A2014F77C4
:10284000552766277727440F551F440F551FFA0158
:10285000E35BFB4F80829182A282B3828091080465
:102860008160809308048A89823080F08D819E8106
:10287000AF81B885C80ED91EEA1EFB1EC09209049E
:10288000D0920A04E0920B04F0920C0481E0DF91F4
:10289000CF911F910F91FF90EF90DF90CF90BF905D
:1028A000AF909F908F907F906F905F904F90089522
:1028B0008F929F92AF92BF92CF92DF92EF92FF9250
:1028C0000F931F93CF93DF93FC0181859285A3859E
:1028D000B4850196A11DB11D84179507A607B707FA
:1028E00010F480E05AC083889488A588B6888789C8
:1028F000803129F4BB27A72F962F852F09C0DB0134
:10290000CA01C7E0B695A79597958795CA95D1F75F
:10291000E9016A017B018F01BC01CD01680D791DC0
:102920008A1D9B1D80901D0290901E02A0901F0288
:10293000B0902002681579058A059B0591F4F8018D
:102940008789803199F4DD24EE24FF24C601880FA5
:10295000991FFC01E35BFB4F80819181A0E0B0E017
:1029600017C040E0BDDE8111EACFBBCFE894C7F8C5
:10297000DD24EE24FF24C601880F991F880F991FBC
:10298000FC01E35BFB4F80819181A281B381BF7029
:1029900088839983AA83BB8381E0DF91CF911F91C4
:1029A0000F91FF90EF90DF90CF90BF90AF909F90EE
:1029B0008F9008952F923F924F925F926F927F92E5
:1029C0008F929F92AF92BF92CF92DF92EF92FF923F
:1029D0000F931F93CF93DF93CDB7DEB72B970FB62F
:1029E000F894DEBF0FBECDBF7C01FE013196CE0153
:1029F0000C966F0130E23193E817F907E1F7DA013D
:102A000030E087E09D91992331F19E3231F48A3094
:102A100009F468C138E08AE0F5CFE6EBF1E04491D3
:102A2000442321F031969413FACF5CC1831708F444
:102A300059C14FED490F4E3508F054C141E0430FE5
:102A4000F601E30FF11D3FE9390F3A3108F49052D6
:102A50009083342FD7CF8981803209F443C1322E3D
:102A60008B01DB015B968D919C915C97F701948FB4
:102A7000838F16961D921D921D921C921997FB0131
:102A80001286138614861586B12CF80182859385EB
:102A9000A485B58543895489658976898417950706
:102AA000A607B70708F05BC025E0B695A7959795F0
:102AB00087952A95D1F7F82FFF70AF2ED80115967C
:102AC0008C91823008F40EC1C8010E941F0897FD46
:102AD00009C1F80182859385A485B5854F96A11D0E
:102AE000B11D82879387A487B587F0E2AF9EB001BE
:102AF0001124635B7B4F6115710509F4F3C0DB01A1
:102B00008C91882319F0853EC1F4EEC0B1100EC03F
:102B1000F701A28A80911D0290911E02A0911F02CE
:102B2000B091200286879787A08BB18BDB018C91B7
:102B3000882399F0BB24B394A8CF4BE050E0C601A2
:102B40000E94AD26892B09F0A0CF832D807380339E
:102B500009F4C8C0432D6A2DC1C0BB24B394832D92
:102B60008271823109F0BEC0BB20B9F0F7016685E1
:102B700077858089918941E0B3DD882309F4B2C06B
:102B8000D70152968C91B0E28B9FC0011124835BD8
:102B90009B4F009709F077C0A5C0F801858182306E
:102BA00009F4A0C0C8010E948E03882309F49AC0CA
:102BB000D8015B96ED91FC915C9716968D909D9057
:102BC000AD90BC901997B2E08B1A9108A108B1089A
:102BD000058404C0880C991CAA1CBB1C0A94D2F75B
:102BE00086859785A089B189880E991EAA1EBB1E6D
:102BF0002480E1E08E1A9108A108B108222001F199
:102C000024013501420C511C611C711C2EDD8823EE
:102C100009F468C0EDE4F4E0119226E0ED34F20727
:102C2000D9F740921D0250921E0260921F027092CC
:102C30002002809108048160809308042A94DECFEA
:102C4000D8015B96ED91FC915C9780E092E0A0E06A
:102C5000B0E0058404C0880F991FAA1FBB1F0A9407
:102C6000D2F7F8014389548965897689840F951FC5
:102C7000A61FB71F838B948BA58BB68BD70152965B
:102C80001C928DE494E020E2FC0111922A95E9F770
:102C90002BE0F601DC0101900D922A95E1F721E28B
:102CA00038E2DC0151963C932E93509740E058E077
:102CB0001F965C934E931E9753963C932E93529778
:102CC00059963C932E93589757965C934E935697EC
:102CD000CCDC882339F0432DF7016289C7010E94BB
:102CE000890205C080E003C0B11024CF11CF2B961C
:102CF0000FB6F894DEBF0FBECDBFDF91CF911F910D
:102D00000F91FF90EF90DF90CF90BF90AF909F908A
:102D10008F907F906F905F904F903F902F9008958D
:102D200040E0682F8FE697E0D0CB81E0F9DF8BE3BE
:102D30009FE10197F1F70895CF93DF93823028F058
:102D400090917E07986090937E07809382071092FF
:102D5000830780E48093840780E18093850780E582
:102D60008093860761E0809173070E943B0B8091FE
:102D700074078F3F19F061E00E943B0B61E0809186
:102D800075070E943B0BCFE6D7E09E012F563740D8
:102D900080917E0784FD03C084E090E002C088E05B
:102DA00090E02196281739072CF461E08E810E946B
:102DB0003B0BEBCF8BE39DE00197F1F760E0809157
:102DC00073070E940D0B60E0809175070E940D0B48
:102DD000809174078F3F19F060E00E940D0B809185
:102DE0007E0784FD1CC063E08FE697E043DBCBE405
:102DF000D6E4CE010197F1F763E08FE697E03ADB86
:102E00002197F1F763E08FE697E034DB83E592E00A
:102E10000197F1F762E08FE697E02CDB12C0806249
:102E20007FDF8BE496E40197F1F780917E07806263
:102E300077DF83E592E00197F1F780917E0780626A
:102E40006FDF80917E0780626BDF84E080937F0775
:102E50008CE066DF6ADF82E08093800786E0DF91A6
:102E6000CF915ECF0F931F93E3E4F2E0A491EDEFD7
:102E7000F1E0E491882311F0BA2F01C0B0E0F0E056
:102E8000EE0FFF1FEA53FE4F859194918A019B013B
:102E90003F704B2F6A2FC6D36115710581059105CF
:102EA00049F0DC01CB010196A11DB11DBC01CD0192
:102EB0009F7003C060E070E0CB011F910F910895F7
:102EC0004F925F926F927F92AF92BF92CF92DF92BA
:102ED000EF92FF920F931F93CF93DF9300D01F9237
:102EE000CDB7DEB78C0149835A836B837C8359014C
:102EF000C12CD12C7601412C82E0582E612C712CF2
:102F000049815A816B817C819E012F5F3F4FC801AF
:102F1000CFDC882351F1D301C201F801058404C03C
:102F2000880F991FAA1FBB1F0A94D2F7C80ED91E7B
:102F3000EA1EFB1E49815A816B817C818789803121
:102F400029F088EF9FEFAFEFBFE004C088EF9FEF5D
:102F5000A0E0B0E0481759076A077B0788F2F5013F
:102F6000C082D182E282F38281E00F900F900F90B5
:102F70000F90DF91CF911F910F91FF90EF90DF9015
:102F8000CF90BF90AF907F906F905F904F900895DB
:102F9000CF93DF93FC012581222311F080E048C00C
:102FA000EC01809111078031C1F482E08583178A9A
:102FB000108E118E128E8091120790911307A0E04F
:102FC000B0E025E0880F991FAA1FBB1F2A95D1F7F3
:102FD000838B948BA58BB68B18C08032F9F683E077
:102FE00085834091140750911507609116077091E1
:102FF0001707478B508F618F728F9F012D5E3F4F58
:103000008AEF96E05DDF882349F28AEF96E09C8F95
:103010008B8F81E08C831E821F82188619861A8608
:103020001B861C861D861E861F86188A198A1A8A88
:10303000DF91CF9108958F929F92AF92BF92CF92DE
:10304000DF92EF92FF92CF93DF93C82F8EEE96E040
:1030500090934E0680934D06CC2361F1C53010F05D
:1030600080E00AC140E060E070E0CB0139DB8823FA
:10307000B9F320E1C29FC0011124835C9B4FFC0186
:10308000E254FE4F20812F7759F73C9640815181C1
:1030900062817381443651056105710508F33497E7
:1030A000C080D180E280F380C114D104E104F10436
:1030B00021F4D6CFC12CD12C760140E0C701B60156
:1030C0000FDB882369F2809158049091590481158F
:1030D000924031F6A0915D04AA2309F4C1CF60911A
:1030E0005B0470915C046115710509F4B9CF2091FE
:1030F0005A04222309F4B4CFA0930C072093FE06B0
:1031000080E030E041E050E0C82FFA01082E02C014
:10311000EE0FFF1F0A94E2F72E173F0739F08F5F7B
:10312000C83091F789E0809307079ACF809307070B
:1031300020916304309164042115310519F040E0B9
:1031400050E008C0209171043091720440917304E2
:10315000509174042093FF063093000740930107B9
:103160005093020746015701860E971EA11CB11C01
:1031700080920D0790920E07A0920F07B092100751
:10318000E0915E04F0915F04F0931307E09312075F
:10319000B0E00E947424860E971EA81EB91E80926D
:1031A000140790921507A0921607B092170785E0B2
:1031B000EE0FFF1F8A95E1F7E150FE4FEF2FFF273B
:1031C000E6958E0E9F1EA11CB11C8092080790925E
:1031D0000907A0920A07B0920B0720916004309172
:1031E00061042115310521F0A90160E070E008C0FB
:1031F00040916D0450916E0460916F047091700461
:10320000D701C60188199909AA09BB09840F951F1E
:10321000A61FB71F04C0B695A79597958795CA9521
:10322000D2F78093030790930407A0930507B09308
:103230000607853F2FE09207A105B10510F48CE049
:1032400018C0853F9F4FA105B10510F480E111C062
:103250008091790490917A04A0917B04B0917C04D0
:103260008093140790931507A0931607B093170740
:1032700080E28093110781E0DF91CF91FF90EF9082
:10328000DF90CF90BF90AF909F908F900895643063
:1032900008F063E090918207691710F06FEF690FF3
:1032A000E62FF0E0E159F84F9489890F806838CD16
:1032B0004F925F926F927F928F929F92AF92BF9246
:1032C000CF92DF92EF92FF921F93CF93DF93EC01A7
:1032D0006A017B019A01AB01C701B6010E94272553
:1032E000882319F067ED73E027C046015701E89481
:1032F000B7F82FEF3FEF4FE75FE7C501B4010E943A
:10330000272581110DC02FEF3FEF4FE75FE7C50184
:10331000B4010E945B2318161CF46BED73E00CC023
:103320002FEF3FEF4FE75FE4C701B6010E9423256F
:103330001816A4F46FED73E0CE01DF91CF911F91C9
:10334000FF90EF90DF90CF90BF90AF909F908F90C5
:103350007F906F905F904F900C9459112FEF3FEF3B
:103360004FE75FECC701B6010E945B2387FDE2CF08
:1033700020E030E0A901C701B6010E945B2387FF6E
:103380000AC06DE2CE010E942E115C01F7FAF094A2
:10339000F7F8F09402C0A12CB12C2AE037ED43EAF3
:1033A0005BE3C701B6010E948E242B013C010E9401
:1033B000F7246B017C010E945F239B01AC01C301D8
:1033C000B2010E948D242B013C012AE0B701A60125
:1033D000CE010E946E117C01EA0CFB1C6EE2CE0154
:1033E0000E942E11E80EF91E13E0115021F120E089
:1033F00030E040E251E4C301B2010E94C0232B013E
:103400003C010E94F7244B01A12CB12C2AE0B5010C
:10341000A401CE010E946E11E80EF91EC501B4018F
:103420000E945F239B01AC01C301B2010E948D2465
:103430002B013C01DACFC701DF91CF911F91FF90A3
:10344000EF90DF90CF90BF90AF909F908F907F9044
:103450006F905F904F900895CF93DF93C5E6D7E0CC
:1034600061E089810E943B0B60E089810E940D0B25
:1034700061E088810E940D0B61E089810E940D0B43
:1034800060E08981DF91CF910C943B0BCF93DF9368
:10349000C5E6D7E061E089810E943B0B60E088814E
:1034A0000E940D0B61E089810E940D0B61E0888113
:1034B0000E940D0B60E088810E940D0B60E0898105
:1034C000DF91CF910C943B0B1F93CF93DF9360E080
:1034D000809166070E943B0BC7E0D0E010E061E0FE
:1034E000809165070E940D0B809166070E94E50A96
:1034F00099270C2E01C0880F0A94EAF7182B60E078
:10350000809165070E940D0B219748F7812FDF916D
:10351000CF911F91089560E0809166070E943B0B58
:1035200061E0809165070E940D0B809166070E9403
:10353000E50A0197D1F360E0809165070C940D0BCB
:10354000EF92FF920F931F93CF93DF93E82EF62E07
:10355000C7E0D0E0042F10E0B8010C2E02C0759532
:1035600067950A94E2F761708E2D0E940D0B61E061
:103570008F2D0E940D0B60E08F2D0E940D0B219767
:1035800058F7DF91CF911F910F91FF90EF90089521
:103590001F920F920FB60F9211242F933F938F9388
:1035A0009F93AF93BF938091000490910104A091E9
:1035B0000204B09103043091A60723E0230F2D37B6
:1035C00020F40196A11DB11D05C026E8230F029627
:1035D000A11DB11D2093A6078093000490930104C0
:1035E000A0930204B0930304809104049091050415
:1035F000A0910604B09107040196A11DB11D80930E
:10360000040490930504A0930604B0930704BF91AB
:10361000AF919F918F913F912F910F900FBE0F907F
:103620001F901895CF92DF92EF92FF920F931F9306
:10363000E82FF92F05C0015011092109310961F165
:10364000908196239417B9F305C0015011092109FF
:10365000310911F1908196239413F7CFC12CD12C0D
:10366000E12CF12C0AC08FEFC81AD80AE80AF80A30
:103670000C151D052E053F0579F0808186238417E2
:1036800091F36C2D7D2D8E2D9F2D1F910F91FF900D
:10369000EF90DF90CF90089560E070E080E090E0E0
:1036A0001F910F91FF90EF90DF90CF900895CF93EF
:1036B000DF93CDB7DEB7C657D1090FB6F894DEBF9A
:1036C0000FBECDBF789484B5826084BD84B581601F
:1036D00084BD85B5826085BD85B5816085BD8091DD
:1036E0006E00816080936E00109281008091810055
:1036F000826080938100809181008160809381004D
:10370000809180008160809380008091B10084600E
:103710008093B1008091B00081608093B00080916F
:1037200091008260809391008091910081608093EC
:103730009100809190008160809390008091A10021
:1037400082608093A1008091A10081608093A1009C
:103750008091A00081608093A0008091210182600F
:1037600080932101809121018160809321018091CA
:10377000200181608093200180917A008460809391
:103780007A0080917A00826080937A0080917A003A
:10379000816080937A0080917A00806880937A00BB
:1037A0001092C100E0915F06F091600682E0808394
:1037B000E0915B06F0915C061082E0915D06F0916D
:1037C0005E068FEC808310926706E0916306F091AD
:1037D000640686E08083E0916106F0916206808154
:1037E00080618083E0916106F0916206808188604B
:1037F0008083E0916106F091620680818068808319
:10380000E0916106F091620680818F7D808368E09F
:1038100071E08FE496E00E94C8111092A207109206
:10382000A1071092A00710929F0710929E07109276
:103830009D078DE991E09093A4078093A307809161
:10384000930796EF980F943048F02EEC280F243011
:1038500028F022EC280F283008F062C02DEB30E071
:1038600030939E0720939D072BE931E03093A0070A
:1038700020939F072CE231E03093A2072093A10709
:10388000943058F02EEC280F243038F022EC280F1A
:10389000283030F4A8E6B0E005C0A8E6B0E0B2C534
:1038A000A0E0B0E0283008F4ADC5E0E0F0E0208111
:1038B000943008F48BC59EEC980F943008F486C5BC
:1038C0008E53883008F082C584E0822B8C938091DF
:1038D000930796EF980F943008F47AC52EEC280FD2
:1038E000243008F475C522EC280F283008F073C581
:1038F0002DE630E030939B0720939A07943008F030
:103900006DC59AEF980F81E001C0880F9A95EAF78C
:1039100080939C078091A3079091A4070197F1F7EA
:103920008091A1079091A207892B49F1E091E603CC
:10393000F091E70387E0E738F80709F1309739F0AD
:10394000A389B4899C918589809589238C938091E2
:10395000A5078E7F8093A5071092E5031092E403DC
:1039600087E897E09093E7038093E603E0919A0756
:10397000F0919B07908180919C07892B808362E066
:10398000809157070E943B0B0E942A0EDC01CB015D
:10399000805D9740A109B10980935B0790935C0714
:1039A000A0935D07B0935E0787E38093640761E0AF
:1039B0008AE00E943B0B60E083E00E943B0B61E0E9
:1039C0008BE00E943B0B61E08CE00E943B0B82E0AD
:1039D000B3D968EE73E080E090E00E94F20DA5D9C3
:1039E00060E080E054DC61EA72E08FE697E00E94DC
:1039F000DA1160ED77E080E090E00E94F20D95D959
:103A000060E080E044DC6CEA72E08FE697E00E94C0
:103A1000DA1161E080E03BDC68EB72E08FE697E072
:103A20000E94DA1164EF71E080E090E00E94F20DF4
:103A300080911D07882321F088E197E00E9483038D
:103A40001092F9061092F7061092F4061092F306FF
:103A500085E38093F2060E942A0E8B0161E080913B
:103A6000F2060E943B0B61E08091F2060E940D0B72
:103A7000FFB6F8948091E803811127C0EFE2F2E0ED
:103A80008491E5E7F2E09491E82FF0E0EE0FFF1F5C
:103A9000EA5AFE4FA591B491EC91E92321F461E03B
:103AA00085E30E940D0B61E085E30E943B0B8CB522
:103AB00080618CBD8CB580648CBD61E084E30E9424
:103AC0003B0B61E083E30E943B0B8091E8038F5F37
:103AD0008093E803FFBE82E58093EC061092ED062A
:103AE0008091EC069091ED060E94DC047AE0F72EBE
:103AF0008FEF0E94A104FA94F110FACF8EEE96E0B7
:103B00000E94DF0420E030E0A90160E08EEE96E044
:103B10000E94F304F82E8093F80691E0891749F08B
:103B20000E942A0E601B710B613D774058F381E0C3
:103B300056C02AEA31E040E050E068E08EEE96E0C0
:103B40000E94F30482FF03C0F092F90610C064E003
:103B5000F62E0E94A8048093F806FA94F110F9CF8B
:103B60008A3A11F082E03BC082E08093F9068091AE
:103B7000F906823031F4C12CD12CE12C50E4F52E21
:103B800003C0C12CD12C760120E030E0A90167E30D
:103B90008EEE96E00E94F304A701960169E28EEE94
:103BA00096E00E94F3048093F806882349F00E946F
:103BB0002A0E601B710B613D774030F388E00FC027
:103BC0008091F906823001F520E030E0A9016AE336
:103BD0008EEE96E00E94F304882341F086E0809305
:103BE000F3068EEE96E00E949704ACC00E94A804F3
:103BF000807C803C19F483E08093F9060E94A8043D
:103C00000E94A8040E94A8048EEE96E00E949704E9
:103C100080E58093EC061092ED0681E00CDA8823B3
:103C200039F088E197E0B4D9882309F48BC006C045
:103C300080E001DA882309F485C0F3CF76D866ECFA
:103C400072E08FE496E00E94B6116FED72E08FE6AD
:103C500097E00E94DA1160E08BE00E940D0B40E3D8
:103C600055E760E070E081E0FDD86093F103709368
:103C7000F2038093F3039093F40340E355E760E08D
:103C800070E080E0EFD80091F1031091F2032091F1
:103C9000F3033091F403DC01CB01800F911FA21FCD
:103CA000B31F8093E9039093EA03A093EB03B093CF
:103CB000EC036DEE72E08FE496E00E94DA11409121
:103CC000E9035091EA036091EB037091EC032AE061
:103CD0008FE496E00E946E1168EF72E08FE496E048
:103CE0000E94B61180916607843101F580916507C5
:103CF0008531E1F481E080936E0761E084E10E9408
:103D00000D0B61E085E10E940D0B8091B9008E7F63
:103D10008093B9008091B9008D7F8093B9008CE0C9
:103D20008093B80085E08093BC0007C010926E07B6
:103D300061E0809165070E943B0B4BE4242E42E03A
:103D4000342EBCC20E9495166CEF72E08FE496E0B0
:103D50000E94B6116AE173E08FE697E00E94DA11E3
:103D600061E08BE00E940D0B68EE73E080E090E074
:103D70000E94F20D60E08BE00E940D0BDECF80917F
:103D800058078B3008F4BCC28D3008F0A6C2609191
:103D9000530770E080E090E094D42DEC3CEC4CECC8
:103DA0005DE3EED46B017C016091520770E080E02E
:103DB00090E087D49B01AC01C701B601AFD56B0180
:103DC0007C010E94360E882309F4A1C280E00E9483
:103DD0005B0A2B013C010E94360E882309F49EC227
:103DE00081E00E945B0A4B015C01A7019601C701BB
:103DF000B6012DD68111D9C2A3019201C301B2012E
:103E000026D68111D2C2A5019401C501B4011FD6E5
:103E10008111CBC20E949F0CBC018FE496E00E94EE
:103E2000DA116CE773E08FE496E00E94DA1181E129
:103E30000E948D0D182F82E10E948D0D682F70E079
:103E400086E0759567958A95E1F7072E000C880B3B
:103E5000990B37D420E030E040E85EE391D44B0189
:103E60005C01612F70E080E090E029D49B01AC01FF
:103E7000C501B40153D5B6D54B01770FAA08BB08CD
:103E8000B7FE53C26DE28FE496E00E942E114427E4
:103E90005527BA01481959096A097B092AE08FE4B4
:103EA00096E00E946E1168E273E08FE496E00E9453
:103EB00059116BE471E08FE496E00E943511B7016F
:103EC000A6018FE496E0F4D96AE371E08FE496E00E
:103ED0000E943511B301A2018FE496E0E9D965E3B0
:103EE00071E08FE496E00E94C81149E050E060E084
:103EF00072E087E897E00E94300F05EF13E00E9420
:103F00002A0E60938F077093900780939107909388
:103F1000920787E897E00E94E71097FF4DC20E9442
:103F20002A0E80908F0790909007A0909107B090F4
:103F30009207DC01CB0188199909AA09BB09809075
:103F40008B0790908C07A0908D07B0908E078815F6
:103F50009905AA05BB05E8F240EE51E56FE070E077
:103F600081E00E94321728EE33E040E050E092D525
:103F700049015A012093F1033093F2034093F30374
:103F80005093F403A8E8B3E1AFD4605177428109BC
:103F9000910928EE33E040E050E07CD5E7962CAF65
:103FA0003DAF4EAF5FAFE7972093ED033093EE0345
:103FB0004093EF035093F00389288A288B2861F2FD
:103FC0000E94951660E080E062D96BE273E08FE6B4
:103FD00097E00E94DA1161E080E059D9C301B20193
:103FE00001D58FE697E00E94280A6BE373E08FE625
:103FF00097E00E94DA1161E086E049D9C701B60175
:10400000F1D48FE697E00E94280A6DE373E08FE613
:1040100097E00E94DA1161E08AE039D9E5966EAD49
:104020007FADE5978FE697E00E94280A6CE473E085
:104030008FE697E00E94DA116FE373E08FE496E079
:104040000E94DA114091ED035091EE036091EF036D
:104050007091F0032AE08FE496E00E946E116BE409
:1040600073E08FE496E00E94B61160E573E08FE4A0
:1040700096E00E94B61164EF71E080E090E00E944B
:10408000F20D1C821B823A8229821E82CE01019689
:104090000E94C817BE016F5F7F4FCE01CB960E9472
:1040A000CE0719A218A23F8E2E8E1BA221968FAD8D
:1040B000219781113EC16C961FAE1EAE6C9788EEA3
:1040C00093E0A0E0B0E0A0968CAF9DAFAEAFBFAFE5
:1040D000A097A7E5B2E06A96BFAFAEAF6A97E39646
:1040E0001FAE1EAEE397A5961FAEA5976C968EAD3C
:1040F0009FAD6C9790933A0780933907A0968CAD4B
:104100009DADAEADBFADA09780933B0790933C07AC
:10411000A0933D07B0933E07A4968CAD9DADAEAD88
:10412000BFADA49780933F0790934007A0934107AA
:10413000B0934207A8E5B0E0AC0FBD1F1C96E3E4C6
:10414000F7E08D91819387E0E035F807D1F7E396AA
:10415000EEADFFADE397F0935107E0935007309732
:1041600009F412C18581882309F40EC10E94650DEE
:10417000BC018FE496E00E94DA116FE573E08FE4F2
:1041800096E00E94DA110E94F90CBC018FE496E0DF
:104190000E94DA116CE573E08FE496E00E94DA1178
:1041A0000E949F0CBC018FE496E00E94B61168EE5D
:1041B00073E080E090E00E94F20D0E94650DBC016A
:1041C00087E397E00E94B6116FE573E087E397E01D
:1041D0000E94DA110E94F90CBC0187E397E00E946B
:1041E000B6116CE573E087E397E00E94DA110E9454
:1041F0009F0CBC0187E397E00E94DA1161E673E04F
:1042000087E397E00E94DA1164EF71E080E090E0CC
:104210000E94F20D6FE373E087E397E00E94DA11EA
:104220004091ED035091EE036091EF037091F00324
:104230002AE087E397E00E946E116BE473E087E366
:1042400097E00E94B6116AE271E087E397E00E946E
:104250003511B701A60187E397E02AD869E171E03B
:1042600087E397E00E943511B301A20187E397E04D
:104270001FD864E171E087E397E00E94C81160E510
:1042800073E087E397E00E94B61180915007909108
:104290005107009759F00E94830380915007909135
:1042A0005107CED4109251071092500768EB7BE073
:1042B00080E090E00E94F20D0E942F1060E08BE001
:1042C0000E940D0B64EF71E080E090E00E94F20D1F
:1042D0000E94360E811153CD13C08551823080F477
:1042E000609152077091530776276727762780E001
:1042F00090E0E5D12DEC3CEC4CEC5DE341D25FCDA0
:10430000C12CD12C30ECE32E3FE7F32E5ACD412CBB
:10431000512C20EC622E2FE7722E5DCD812C912C3A
:1043200090ECA92E9FE7B92E60CD2AE0B501A4013B
:10433000B6CD27E143E753E0BE01655C7F4FCE0178
:104340004E960E94DA14882309F4B5CECE01CB969E
:104350000E94830349A95AA96BA97CA9CE014E9654
:104360000E94F201BE01625E7F4FCE0101960E9463
:10437000CE0743E753E0BE016F5F7F4FCE01885AFF
:104380009F4F0E94F309B2CE65E673E08FE496E09A
:104390000E94B61161E08BE00E940D0B68EE73E0A5
:1043A00080E090E00E94F20D81CF6EE773E08FE431
:1043B00096E00E94B61180CFD8018D938D01EEEF6B
:1043C000F3E0EA17FB0709F09ACDC6CD81E07DCA7C
:1043D0002BE630E08FCA20E030E08CCA823351F007
:1043E000833351F0843351F092EC980F983040F4BD
:1043F00092EC88CA88E08CCA84E08ACA82E088CAC3
:1044000081E086CAE8E6F0E052CA83E992E0909340
:104410008807809387078091E6039091E703875888
:10442000974071F4E0919A07F0919B0790818091F9
:104430009C078095892380831092E7031092E603FE
:104440000895109252061092510688EE93E0A0E073
:10445000B0E08093530690935406A0935506B09312
:10446000560629E332E03093500620934F0625ECA0
:1044700030E030935C0620935B0624EC30E0309310
:104480005E0620935D0620EC30E0309360062093BA
:104490005F0621EC30E0309362062093610622EC47
:1044A00030E0309364062093630626EC30E03093CE
:1044B00066062093650610926806109269061092AF
:1044C0006A0610926B0620E52093EC061092ED062A
:1044D0001092F3061092F4061092F7061092F90665
:1044E00042E050E060E070E04093FA065093FB0633
:1044F0006093FC067093FD061092110710921B0743
:1045000010921A072BE432E0309319072093180712
:1045100010921D0710928A071092890780938B07CB
:1045200090938C07A0938D07B0938E0783E992E058
:10453000909388078093870710929E0710929D079B
:104540001092A00710929F071092A2071092A10745
:104550001092A4071092A3076091A5076E7F6D7F4C
:104560006093A5076695617081E068270E940D0B36
:1045700061E081E00E943B0BE1E4F2E0E491E09332
:104580009707EBEFF1E0E491F0E0EE0FFF1FE05250
:10459000FE4F85919491909399078093980760E0DE
:1045A00080E00E943B0B8091A50781FD04C061E083
:1045B00080E00E940D0B10929307E0E4F2E0E4919A
:1045C000E0939407EAEFF1E0E491F0E0EE0FFF1FD3
:1045D000EA53FE4F859194919093960780939507A7
:1045E000109272071092710789E692E0909370071B
:1045F00080936F0789E0809373078FEF8093740730
:1046000088E08093750787E08093760786E0809343
:10461000770785E08093780784E08093790710928C
:104620007A0710927B0710927C0710927D071092F8
:104630007E0781E00E949C1684E18093660785E1F5
:104640008093650782E08093570786E1809358073F
:10465000E2E4F2E0E491E0935907ECEFF1E0E49159
:10466000E0935A0780E89EE3A0E0B0E080935F0704
:1046700090936007A0936107B093620710923A0786
:104680001092390788EE93E0A0E0B0E080933B07FA
:1046900090933C07A0933D07B0933E0787E592E0D7
:1046A0009093380780933707109251071092500764
:1046B00010924307089540D008F481E00895E894EB
:1046C00009C097FB3EF490958095709561957F4F5A
:1046D0008F4F9F4F9923A9F0F92F96E9BB27939508
:1046E000F695879577956795B795F111F8CFFAF418
:1046F000BB0F11F460FF1BC06F5F7F4F8F4F9F4F49
:1047000016C0882311F096E911C0772321F09EE8A6
:10471000872F762F05C0662371F096E8862F70E00C
:1047200060E02AF09A95660F771F881FDAF7880FE6
:104730009695879597F90895990F0008550FAA0B3C
:10474000E0E8FEEF16161706E807F907C0F01216A4
:104750001306E407F50798F0621B730B840B950BA7
:1047600039F40A2661F0232B242B252B21F40895FC
:104770000A2609F4A140A6958FEF811D811D089599
:104780000BD078C069D028F06ED018F0952309F0CE
:104790005AC05FC01124A2C07ED0A0F3959FD1F370
:1047A000950F50E0551F629FF001729FBB27F00DDF
:1047B000B11D639FAA27F00DB11DAA1F649F662734
:1047C000B00DA11D661F829F2227B00DA11D621F83
:1047D000739FB00DA11D621F839FA00D611D221F3D
:1047E000749F3327A00D611D231F849F600D211D21
:1047F000822F762F6A2F11249F5750408AF0E1F0C4
:1048000088234AF0EE0FFF1FBB1F661F771F881F0C
:1048100091505040A9F79E3F510570F014C05EC002
:104820005F3FECF3983EDCF3869577956795B795F7
:10483000F795E7959F5FC1F7FE2B880F911D969521
:10484000879597F9089597F99F6780E870E060E091
:1048500008959FEF80EC089500240A941616170619
:1048600018060906089500240A9412161306140661
:1048700005060895092E0394000C11F4882352F0C4
:10488000BB0F40F4BF2B11F460FF04C06F5F7F4F7C
:104890008F4F9F4F089557FD9058440F551F59F063
:1048A0005F3F71F04795880F97FB991F61F09F3F1D
:1048B00079F087950895121613061406551FF2CF46
:1048C0004695F1DF08C0161617061806991FF1CF96
:1048D00086957105610508940895E894BB276627BD
:1048E0007727CB0197F9089509D0A59F900DB49F24
:1048F000900DA49F800D911D11240895A29FB001D9
:10490000B39FC001A39F700D811D1124911DB29F03
:10491000700D811D1124911D08955058BB27AA27A1
:104920000ED0A8CF99DF30F09EDF20F031F49F3F0A
:1049300011F41EF48ECF0EF4E095E7FB84CFE92F3F
:10494000AADF80F3BA17620773078407950718F088
:1049500071F49EF5C2CF0EF4E0950B2EBA2FA02D68
:104960000B01B90190010C01CA01A0011124FF271C
:10497000591B99F0593F50F4503E68F11A16F04017
:10498000A22F232F342F4427585FF3CF4695379516
:104990002795A795F0405395C9F77EF41F16BA0BDB
:1049A000620B730B840BBAF09150A1F0FF0FBB1F89
:1049B000661F771F881FC2F70EC0BA0F621F731FD2
:1049C000841F48F4879577956795B795F7959E3F2F
:1049D00008F0B3CF9395880F08F09927EE0F9795BD
:1049E0008795089504D06894B11178CF08955BDF5E
:1049F00088F09F5790F0B92F9927B751A0F0D1F0C8
:104A0000660F771F881F991F1AF0BA95C9F712C051
:104A1000B13081F062DFB1E008955FCF672F782F6A
:104A20008827B85F39F0B93FCCF3869577956795BD
:104A3000B395D9F73EF490958095709561957F4F29
:104A40008F4F9F4F089578DE08F48FEF089574DE3E
:104A5000880B990B0895991B79E004C0991F96174C
:104A600008F0961B881F7A95C9F78095089597FBE3
:104A7000072E16F4009406D077FD08D035D007FC39
:104A800005D03EF4909581959F4F0895709561955E
:104A90007F4F0895A1E21A2EAA1BBB1BFD010DC07A
:104AA000AA1FBB1FEE1FFF1FA217B307E407F507DE
:104AB00020F0A21BB30BE40BF50B661F771F881FBA
:104AC000991F1A9469F760957095809590959B0150
:104AD000AC01BD01CF010895EE0FFF1F881F8BBFF2
:104AE0000790F691E02D1994AA1BBB1B51E107C05A
:104AF000AA1FBB1FA617B70710F0A61BB70B881F6E
:104B0000991F5A95A9F780959095BC01CD010895FC
:104B10000F931F93CF93DF938230910510F482E0BF
:104B200090E0E091A907F091AA0720E030E0A0E032
:104B3000B0E0309719F1408151810281138148170B
:104B40005907C8F08417950769F4109731F0129649
:104B50000C93129713961C9327C00093A9071093E8
:104B6000AA0722C02115310519F04217530718F47E
:104B70009A01BD01EF01DF01F801DBCF21153105FD
:104B8000F9F0281B390B2430310580F48A819B8190
:104B90006115710521F0FB019383828304C090931A
:104BA000AA078093A907FE01329644C0FE01E20FD6
:104BB000F31F8193919322503109398328833AC09E
:104BC0002091A7073091A807232B41F420912302BD
:104BD000309124023093A8072093A7072091210247
:104BE000309122022115310541F42DB73EB7409195
:104BF000250250912602241B350BE091A707F09166
:104C0000A807E217F307A0F42E1B3F0B281739075C
:104C100078F0AC014E5F5F4F2417350748F04E0F18
:104C20005F1F5093A8074093A7078193919302C0F9
:104C3000E0E0F0E0CF01DF91CF911F910F91089557
:104C4000CF93DF93009709F481C0FC013297138260
:104C50001282A091A907B091AA07109781F4208130
:104C60003181820F931F2091A7073091A807281741
:104C7000390751F5F093A807E093A70767C0ED0146
:104C800020E030E0CE17DF0740F44A815B819E01CF
:104C900041155105F1F0EA01F5CFD383C28340817C
:104CA0005181840F951FC817D90759F488819981BC
:104CB000840F951F0296918380838A819B819383C1
:104CC00082832115310529F4F093AA07E093A907FF
:104CD0003DC0E901FB83EA8349915991C40FD51F77
:104CE000EC17FD0761F480819181840F951F029676
:104CF000E90199838883828193819B838A83E0E0A1
:104D0000F0E012968D919C911397009719F0FD0198
:104D1000DC01F7CF8D919C9111979D012E5F3F4F44
:104D2000820F931F2091A7073091A80728173907F2
:104D300069F4309729F41092AA071092A90702C0CB
:104D400013821282B093A807A093A707DF91CF9197
:104D5000089581E090E0F8941CC0FB01DC0104C0E0
:104D60008D910190801921F441505040C8F7881B63
:104D7000990B0895FB01DC014150504048F001902F
:104D80000D920020C9F701C01D9241505040E0F73C
:104D9000089511E0C4E4D1E000E005C0802FFE01D9
:104DA0009BDE2196011DC534D10780E00807B1F7CD
:044DB000F894FFCFA5
:104DB400FF018600000000007978787878787878A8
:104DC40078787800787878787878787800FFFFFFBA
:104DD400FF0000AB0780009E03A503AD03B703C02B
:104DE40003C703D00300000000C20F300F5A0F0E98
:104DF400108B0F690F7D0F000000001D11300FAFE5
:104E040001AE01000000009801B307AF01EB017788
:104E1400010709100900000000B212300FAF01AE03
:104E240001000000000811300FAF01AE01081108A5
:104E3400110811000000000811300FAF01AE01008D
:104E44000000008010300FAF017F10D010E7106712
:104E54001057656C636F6D652E2E2E00496E746558
:104E64006C6C6967656E74004D757368726F6F6DF5
:104E7400206661726D00534420636172642069731B
:104E840020726561647920746F207573652E0053F8
:104E94004420636172642072656164790050574DE7
:104EA4002D74696D653A20002075730053442063A6
:104EB40061726420696E697469616C697A6174698C
:104EC4006F6E206661696C6564005344206361728F
:104ED40064206572726F72000D0A0054656D703A39
:104EE4002048756D3A20434F323A00430025004371
:104EF4004F32206C6576656C3A20002070706D002E
:104F04002D2D2D2D2D2D2D2D2D2D2D00202D2D2014
:104F1400003A2D20006572726F72206F70656E69A1
:104F24006E6720544553542E747874002C004661E7
:104F3400696C656420746F20726561642066726FA9
:104F44006D204448542073656E736F7221004D6F59
:104F54006E646179005475657364617900576564A2
:104F64006E65736461790054687572736461790065
:104F74004672696461790053617475726461790081
:104F840053756E646179006E616E00696E66006FC0
:044F9400766600003D
:00000001FF
